:020000040800F2
:1000000000000220C94A0008E1330008E733000875
:10001000ED330008F3330008F93300080000000056
:10002000000000000000000000000000FF33000896
:100030000D340008000000001B34000829340008BB
:10004000194B0008194B0008194B0008194B000800
:10005000194B0008194B0008194B0008194B0008F0
:10006000194B0008194B0008194B0008194B0008E0
:10007000194B0008194B0008194B0008194B0008D0
:10008000194B0008194B0008194B0008194B0008C0
:10009000194B0008194B0008194B0008194B0008B0
:1000A000194B0008194B0008194B0008194B0008A0
:1000B00035340008194B0008194B0008194B00088B
:1000C000194B0008194B0008194B0008194B000880
:1000D000194B0008493400085D340008194B00082A
:1000E000194B0008194B0008194B0008194B000860
:1000F000194B0008194B0008194B0008194B000850
:10010000194B0008194B0008194B0008194B00083F
:10011000194B0008194B0008194B0008194B00082F
:1001200071340008194B0008194B0008194B0008DE
:10013000194B0008194B0008194B0008194B00080F
:10014000194B0008194B0008194B0008194B0008FF
:10015000194B0008194B0008194B0008194B0008EF
:10016000194B0008194B0008194B0008194B0008DF
:10017000194B0008194B0008194B0008000000003B
:08018000194B0008194B00089F
:1001900010B5054C237833B9044B13B10448AFF3C1
:1001A00000800123237010BDD80000200000000053
:1001B000A8AE000808B5034B1BB103490348AFF3D1
:1001C000008008BD00000000DC000020A8AE000890
:1001D00001F0FF01102A2BDB10F0070F08D010F8F8
:1001E000013B013A8B422DD010F0070F42B3F6D1FC
:1001F000F0B441EA012141EA014122F007047FF015
:1002000000070023F0E80256083C85EA010586EA6B
:10021000010685FA47F5A3FA87F586FA47F6A5FAA7
:1002200087F68EB9EED1F0BC01F0FF0102F00702B3
:1002300032B110F8013B013A83EA010313B1F8D15E
:100240000020704701387047002D06BF354603383F
:10025000073815F0010F07D1013015F4807F02BF78
:10026000013015F4C03F0130F0BC0138704700BFC9
:1002700081F0004102E000BF83F0004330B54FEA57
:1002800041044FEA430594EA050F08BF90EA020FC4
:100290001FBF54EA000C55EA020C7FEA645C7FEA57
:1002A000655C00F0E2804FEA5454D4EB5555B8BF7A
:1002B0006D420CDD2C4480EA020281EA030382EAEB
:1002C000000083EA010180EA020281EA0303362D7D
:1002D00088BF30BD11F0004F4FEA01314FF4801C50
:1002E0004CEA113102D0404261EB410113F0004F62
:1002F0004FEA03334CEA133302D0524263EB430319
:1003000094EA050F00F0A780A4F10104D5F1200EB6
:100310000DDB02FA0EFC22FA05F2801841F1000111
:1003200003FA0EF2801843FA05F359410EE0A5F1E5
:1003300020050EF1200E012A03FA0EFC28BF4CF016
:10034000020C43FA05F3C01851EBE37101F00045CC
:1003500007D54FF0000EDCF1000C7EEB00006EEBD9
:100360000101B1F5801F1BD3B1F5001F0CD3490863
:100370005FEA30004FEA3C0C04F101044FEA4452BA
:1003800012F5800F80F09A80BCF1004F08BF5FEA41
:10039000500C50F1000041EB045141EA050130BD21
:1003A0005FEA4C0C404141EB0101013C28BFB1F533
:1003B000801FE9D291F0000F04BF01460020B1FA7E
:1003C00081F308BF2033A3F10B03B3F120020CDA51
:1003D0000C3208DD02F1140CC2F10C0201FA0CF02F
:1003E00021FA02F10CE002F11402D8BFC2F1200C94
:1003F00001FA02F120FA0CFCDCBF41EA0C0190404A
:10040000E41AA2BF01EB0451294330BD6FEA040492
:100410001F3C1CDA0C340EDC04F11404C4F120027D
:1004200020FA04F001FA02F340EA030021FA04F38F
:1004300045EA030130BDC4F10C04C4F1200220FAE6
:1004400002F001FA04F340EA0300294630BD21FA24
:1004500004F0294630BD94F0000F83F4801306BFEA
:1004600081F480110134013D4EE77FEA645C18BFDE
:100470007FEA655C29D094EA050F08BF90EA020F75
:1004800005D054EA000C04BF1946104630BD91EA6D
:10049000030F1EBF0021002030BD5FEA545C05D170
:1004A0004000494128BF41F0004130BD14F58004AF
:1004B0003CBF01F5801130BD01F0004545F0FE4123
:1004C00041F470014FF0000030BD7FEA645C1ABF58
:1004D000194610467FEA655C1CBF0B46024650EA8F
:1004E000013406BF52EA033591EA030F41F40021BB
:1004F00030BD00BF90F0000F04BF0021704730B541
:100500004FF4806404F132044FF000054FF0000115
:1005100050E700BF90F0000F04BF0021704730B5D6
:100520004FF4806404F1320410F0004548BF4042AB
:100530004FF000013EE700BF42004FEAE2014FEA00
:1005400031014FEA02701FBF12F07F4393F07F4FDB
:1005500081F06051704732F07F4208BF704793F0DE
:100560007F4F04BF41F40021704730B54FF46074F1
:1005700001F0004521F000411CE700BF50EA0102F4
:1005800008BF704730B54FF000050AE050EA01029D
:1005900008BF704730B511F0004502D5404261EB0D
:1005A00041014FF4806404F132045FEA915C3FF44E
:1005B000D8AE4FF003025FEADC0C18BF03325FEAEB
:1005C000DC0C18BF033202EBDC02C2F1200300FA9C
:1005D00003FC20FA02F001FA03FE40EA0E0021FAC1
:1005E00002F11444BDE600BF70B54FF0FF0C4CF4AF
:1005F000E06C1CEA11541DBF1CEA135594EA0C0F61
:1006000095EA0C0F00F0DEF82C4481EA030621EA9B
:100610004C5123EA4C5350EA013518BF52EA0335D6
:1006200041F4801143F4801338D0A0FB02CE4FF088
:100630000005E1FB02E506F00042E0FB03E54FF0B8
:100640000006E1FB03569CF0000F18BF4EF0010EB0
:10065000A4F1FF04B6F5007F64F5407404D25FEAAC
:100660004E0E6D4146EB060642EAC62141EA55515F
:100670004FEAC52040EA5E504FEACE2EB4F1FD0CA1
:1006800088BFBCF5E06F1ED8BEF1004F08BF5FEA1F
:10069000500E50F1000041EB045170BD06F00046D1
:1006A00046EA010140EA020081EA0301B4EB5C047E
:1006B000C2BFD4EB0C0541EA045170BD41F4801176
:1006C0004FF0000E013C00F3AB8014F1360FDEBF9B
:1006D000002001F0004170BDC4F10004203C35DA77
:1006E0000C341BDC04F11404C4F1200500FA05F3FA
:1006F00020FA04F001FA05F240EA020001F000429B
:1007000021F0004110EBD37021FA04F642EB060110
:100710005EEA430E08BF20EAD37070BDC4F10C043A
:10072000C4F1200500FA04F320FA05F001FA04F2FE
:1007300040EA020001F0004110EBD37041F10001EA
:100740005EEA430E08BF20EAD37070BDC4F12005F5
:1007500000FA05F24EEA020E20FA04F301FA05F25D
:1007600043EA020321FA04F001F0004121FA04F205
:1007700020EA020000EBD3705EEA430E08BF20EAD5
:10078000D37070BD94F0000F0FD101F0004640000F
:1007900041EB010111F4801F08BF013CF7D041EA91
:1007A000060195F0000F18BF704703F00046520095
:1007B00043EB030313F4801F08BF013DF7D043EA66
:1007C0000603704794EA0C0F0CEA135518BF95EA1C
:1007D0000C0F0CD050EA410618BF52EA4306D1D1A3
:1007E00081EA030101F000414FF0000070BD50EAC2
:1007F000410606BF1046194652EA430619D094EA4C
:100800000C0F02D150EA013613D195EA0C0F05D135
:1008100052EA03361CBF104619460AD181EA030189
:1008200001F0004141F0FE4141F470014FF0000041
:1008300070BD41F0FE4141F4780170BD70B54FF0DC
:10084000FF0C4CF4E06C1CEA11541DBF1CEA13555C
:1008500094EA0C0F95EA0C0F00F0A7F8A4EB05043E
:1008600081EA030E52EA03354FEA013100F0888035
:100870004FEA03334FF0805545EA131343EA1263FE
:100880004FEA022245EA111545EA10654FEA0026B3
:100890000EF000419D4208BF964244F1FD0404F56C
:1008A000407402D25B084FEA3202B61A65EB0305C8
:1008B0005B084FEA32024FF480104FF4002CB6EB85
:1008C000020E75EB030E22BFB61A754640EA0C0005
:1008D0005B084FEA3202B6EB020E75EB030E22BF45
:1008E000B61A754640EA5C005B084FEA3202B6EB86
:1008F000020E75EB030E22BFB61A754640EA9C0045
:100900005B084FEA3202B6EB020E75EB030E22BF14
:10091000B61A754640EADC0055EA060E18D04FEAD2
:10092000051545EA16754FEA06164FEAC30343EA72
:1009300052734FEAC2025FEA1C1CC0D111F4801F3F
:100940000BD141EA00014FF000004FF0004CB6E738
:1009500011F4801F04BF01430020B4F1FD0C88BFD7
:10096000BCF5E06F3FF6AFAEB5EB030C04BFB6EBE2
:10097000020C5FEA500C50F1000041EB045170BDD5
:100980000EF0004E4EEA113114EB5C04C2BFD4EB02
:100990000C0541EA045170BD41F480114FF0000E86
:1009A000013C90E645EA060E8DE60CEA135594EA02
:1009B0000C0F08BF95EA0C0F3FF43BAF94EA0C0F05
:1009C0000AD150EA01347FF434AF95EA0C0F7FF47A
:1009D00025AF104619462CE795EA0C0F06D152EACE
:1009E00003353FF4FDAE1046194622E750EA4106B2
:1009F00018BF52EA43067FF4C5AE50EA41047FF4C3
:100A00000DAF52EA43057FF4EBAE12E74FF0FF3C27
:100A100006E000BF4FF0010C02E000BF4FF0010CF8
:100A20004DF804CD4FEA410C7FEA6C5C4FEA430C71
:100A300018BF7FEA6C5C1BD001B050EA410C0CBFC0
:100A400052EA430C91EA030F02BF90EA020F002022
:100A5000704710F1000F91EA030F58BF994208BF89
:100A600090422CBFD8176FEAE37040F00100704746
:100A70004FEA410C7FEA6C5C02D150EA013C07D19D
:100A80004FEA430C7FEA6C5CD6D152EA033CD3D0E8
:100A90005DF8040B704700BF8446104662468C46E2
:100AA0001946634600E000BF01B5FFF7B7FF002815
:100AB00048BF10F1000F01BD4DF808EDFFF7F4FF3E
:100AC0000CBF012000205DF808FB00BF4DF808EDC9
:100AD000FFF7EAFF34BF012000205DF808FB00BFEC
:100AE0004DF808EDFFF7E0FF94BF012000205DF80E
:100AF00008FB00BF4DF808EDFFF7CEFF94BF0120C3
:100B000000205DF808FB00BF4DF808EDFFF7C4FFBB
:100B100034BF012000205DF808FB00BF4FEA410C04
:100B20007FEA6C5C02D150EA013C0AD14FEA430CE7
:100B30007FEA6C5C02D152EA033C02D14FF0000024
:100B400070474FF0010070474A0011D212F50012B1
:100B500011D20DD56FF47873B3EB62520ED44FEA15
:100B6000C12343F0004343EA505323FA02F0704795
:100B70004FF00000704750EA013002D14FF0FF30D3
:100B800070474FF00000704753B94AB9002908BFB9
:100B900000281CBF4FF0FF314FF0FF3000F06EB95E
:100BA000ADF1080C6DE904CE00F006F8DDF804E0C4
:100BB000DDE9022304B070472DE9F047089D0446A3
:100BC0008C46002B40F083808A42174647D9B2FA00
:100BD00082F242B1C2F1200024FA00F09140974025
:100BE00040EA010C94404FEA1748230CBCFBF8F68E
:100BF0001FFA87FE08FB16C143EA014306FB0EF10C
:100C0000994209D9FB1806F1FF3080F01981994209
:100C100040F21681023E3B445B1AA4B2B3FBF8F0EB
:100C200008FB103344EA034400FB0EFEA64509D935
:100C30003C1900F1FF3380F00581A64540F20281A6
:100C400002383C4440EA0640A4EB0E0400261DB1E5
:100C5000D4400023C5E900433146BDE8F08702B91E
:100C6000FFDEB2FA82F2002A50D1CB1B4FEA174EB8
:100C70001FFA87F80126B3FBFEFC210C0EFB1C3388
:100C800041EA034108FB0CF38B4207D979180CF1B8
:100C9000FF3002D28B4200F2E9808446C91AA3B227
:100CA000B1FBFEF00EFB101143EA014408FB00F813
:100CB000A04507D93C1900F1FF3302D2A04500F24C
:100CC000D9801846A4EB080440EA0C40BFE78B42E9
:100CD00009D9002D00F0B1800026C5E90001304699
:100CE0003146BDE8F087B3FA83F6002E4AD18B4235
:100CF00002D3824200F2B880841A61EB0301012022
:100D00008C46002DA8D0C5E9004CA5E7C2F1200310
:100D100020FA03F6974001FA02F04FEA174ED94045
:100D20003043030CB1FBFEF61FFA87F80EFB1611D9
:100D300043EA014306FB08F1994204FA02F409D997
:100D4000FB1806F1FF3C80F08D80994240F28A80CA
:100D5000023E3B445B1A81B2B3FBFEF00EFB103344
:100D600041EA034100FB08F38B4207D9791800F1EF
:100D7000FF3C73D28B4271D902383944CB1A40EA16
:100D8000064678E7C6F1200C03FA06F422FA0CF3C3
:100D90001C4320FA0CF701FA06F34FEA144E21FA2D
:100DA0000CF11F433B0CB1FBFEF91FFA84F80EFB5C
:100DB000191143EA014109FB08FA8A4502FA06F2D1
:100DC00000FA06F308D9611809F1FF3048D28A45C4
:100DD00046D9A9F102092144A1EB0A01BFB2B1FB36
:100DE000FEF00EFB101147EA014700FB08F8B8457A
:100DF00007D9E71900F1FF312ED2B8452CD90238B6
:100E0000274440EA0940A7EB0807A0FB02894F45A9
:100E1000C64649461AD317D05DB1B3EB0E0267EB55
:100E2000010707FA0CFCF2404CEA0202F740C5E960
:100E3000002700263146BDE8F0872E4628460BE7FE
:100E40000646E9E61846FDE64345E5D2B8EB020E54
:100E500069EB04010138DFE70846D2E760468DE719
:100E60008146B9E7664675E730464AE7ACF1020CC1
:100E7000394413E702383C4424E700BF704700BF01
:100E800080B584B000AF3B4600221A605A609A6079
:100E9000DA603D4B3D4A1A603B4B00225A603A4BA8
:100EA00000229A60384B01221A61374B00221A76D1
:100EB000354B002283F82020334B0022DA62324B7C
:100EC000334A9A62304B0022DA602F4B0522DA61F6
:100ED0002D4B002283F830202B4B01225A612A48E7
:100EE00003F0B2FE0346002B01D001F00DFC0823F5
:100EF0003B6001237B600023BB603B4619462248D0
:100F000003F0E6FE0346002B01D001F0FDFB0923B0
:100F10003B6002237B603B4619461B4803F0D8FE2A
:100F20000346002B01D001F0EFFB0A233B600323B3
:100F30007B603B461946144803F0CAFE0346002B6B
:100F400001D001F0E1FB0B233B6004237B603B46B7
:100F500019460D4803F0BCFE0346002B01D001F0FA
:100F6000D3FB0C233B6005237B603B4619460648B8
:100F700003F0AEFE0346002B01D001F0C5FB00BF1D
:100F80001037BD4680BD00BF9409002000200140FD
:100F90000100000F80B58AB000AF786007F114033C
:100FA00000221A605A609A60DA601A617B681B68D6
:100FB0003C4A934271D100233B613B4B5B6C3A4A04
:100FC00043F480735364384B5B6C03F480733B6170
:100FD0003B690023FB60344B1B6B334A43F0040333
:100FE0001363314B1B6B03F00403FB60FB680023AE
:100FF000BB602D4B1B6B2C4A43F0020313632A4B3F
:101000001B6B03F00203BB60BB6807237B610323F8
:10101000BB610023FB6107F114031946234804F068
:1010200003FD03237B610323BB610023FB6107F105
:10103000140319461E4804F0F7FC1E4B1E4A1A60A2
:101040001C4B00225A601B4B00229A60194B002255
:10105000DA60184B4FF480621A61164B4FF400624D
:101060005A61144B4FF400529A61124B4FF4807244
:10107000DA61104B00221A620E4B00225A620D48B0
:1010800004F056F90346002B01D001F03DFB7B68CC
:10109000084A9A63074A7B68936300BF2837BD46B6
:1010A00080BD00BF0020014000380240000802401F
:1010B00000040240DC0900201064024080B500AF4B
:1010C00000F03CF800BF80BD80B588B004AF034697
:1010D000FB800023FB73FA880A2302930123019308
:1010E00007F10F0300931023A021044805F0A8F88E
:1010F000FB7B18461037BD4680BD00BF8C0A002020
:1011000080B586B004AF03460A46FB8013467B7168
:10111000FA880A230293012301937B1D0093102375
:10112000A021054804F092FF052003F069FD00BFEF
:101130000837BD4680BD00BF8C0A002080B582B054
:1011400000AF4FF6FF70FFF7BFFF0346FB71FB795F
:10115000552B01D1002310E055214FF6FF70FFF70A
:10116000CFFF4FF6FF70FFF7AFFF0346FB71FB7930
:10117000552B01D1002300E0012318460837BD4656
:1011800080BD90B583B000AF03463960FB80134645
:10119000BB800DE0FB885A1CFA803C68621C3A60F8
:1011A0001846FFF791FF03462370BB88013BBB80C5
:1011B000BB88002BEED100BF00BF0C37BD4690BDF1
:1011C00080B582B000AF03463960FB801346BB8018
:1011D0000CE03B681A78FB8811461846FFF790FF31
:1011E000FB880133FB803B6801333B60BB885A1EA0
:1011F000BA80002BEDD100BF00BF0837BD4680BDCF
:1012000080B582B000AF00237B600C4B1B6B0B4A98
:1012100043F480031363094B1B6B03F480037B606F
:101220007B6800220021382004F04BF8382004F0BD
:1012300064F800BF0837BD4680BD00BF00380240DB
:1012400080B584B004AF654B1B68022B00F0A7800B
:10125000022B00F3B980002B02D0012B1AD0B3E08F
:1012600001F058FA03F042FA0346002B00F0AE807A
:101270005A4B01221A605A4B00221A60002000F0DB
:101280009DFB01F0FDFC01F06BFA4FF47A7001F068
:10129000E1FE9BE003F04EFA0346002B0BD0514BCE
:1012A00000221A60504B01221A60504B01221A6032
:1012B0004F4B01221A6003F060FA0346002B0BD05B
:1012C000484B01221A60484B00221A60474B01220A
:1012D0001A60474B01221A6003F074FA0346002B90
:1012E0000BD0404B01221A603F4B01221A603F4B4A
:1012F00000221A603E4B01221A6003F088FA03466E
:10130000002B0BD0374B01221A60374B01221A6099
:10131000364B01221A60364B00221A6001F08CFD18
:1013200001F00EFB334B1B88012B0BD1324B1B689A
:101330009BB2184601F072FE01F0CAFB01F046FABA
:1013400001F0FEFA2D4B1B68012B41D1234B0222E9
:101350001A602B4B01221A60294B00221A600020D0
:1013600000F02CFB4FF4784300934FF49673BE22A9
:10137000FA21322000F054FB012302931823019339
:101380004FF6FF7300934FF6FF731E4A4FF48271BE
:10139000502000F0FDFF194B00221A6018E001F008
:1013A0003DFA03F059FA0346002B13D00C4B0022F0
:1013B0001A600A4B01221A60002000F0FFFA01F0C7
:1013C0005FFC01F0CDF905E000BF04E000BF02E0E2
:1013D00000BF00E000BF00BFBD4680BDF40000209C
:1013E000F80000201C000020200000202800002021
:1013F0002400002066090020000000205C09002075
:10140000FC000020C0AE000880B58EB000AF07F130
:101410001C0300221A605A609A60DA601A615A61ED
:101420009A613B4600221A605A609A60DA601A613B
:101430005A619A612F4B4FF020421A602D4B2E4A71
:101440005A602C4B00229A602A4B0022DA60294B0A
:1014500000221A61274B10225A61264B00229A6102
:10146000244B0022DA61234B00221A62214B002216
:101470005A62204B4FF480529A621E4B0022DA626D
:101480001C4B4FF480421A631A4B00225A63194BCB
:1014900000229A63174B00225A640F23FB610F232B
:1014A0003B623C237B620023BB621023FB6211235F
:1014B0003B6300237B6308233B600F237B6009238E
:1014C000BB600023FB6010233B6111237B61002381
:1014D000BB613A4607F11C031946064806F036FB85
:1014E0000346002B01D001F00FF900BF3837BD468D
:1014F00080BD00BF3C0A0020040100A080B586B07A
:1015000000AF3B1D00221A605A609A60DA601A61CF
:101510001C4B1B68002B31D11A4B01221A6000238F
:101520003B60194B9B6B184A43F001039363164BC6
:101530009B6B03F001033B603B684FF688737B6055
:101540000223BB600023FB6003233B610C237B6110
:101550003B1D19460D4804F067FA4CF2B3737B60EB
:101560000223BB600023FB6003233B610C237B61F0
:101570003B1D1946064804F057FA00E000BF183733
:10158000BD4680BD0001002000380240001002402E
:10159000000C024080B582B000AF7860FFF7AEFF6C
:1015A00000BF0837BD4680BD80B58EB000AF07F1E3
:1015B000240300221A605A609A60DA601A610023DC
:1015C0003B627E4B1B6B7D4A43F0100313637B4BE6
:1015D0001B6B03F010033B623B6A0023FB61774BFC
:1015E0001B6B764A43F004031363744B1B6B03F0CD
:1015F0000403FB61FB690023BB61704B1B6B6F4AEB
:1016000043F0200313636D4B1B6B03F02003BB619E
:10161000BB6900237B61694B1B6B684A43F0800305
:101620001363664B1B6B03F080037B617B690023B4
:101630003B61624B1B6B614A43F0010313635F4BD9
:101640001B6B03F001033B613B690023FB605B4BB9
:101650001B6B5A4A43F002031363584B1B6B03F096
:101660000203FB60FB680023BB60544B1B6B534AB7
:1016700043F008031363514B1B6B03F00803BB607B
:10168000BB6800237B604D4B1B6B4C4A43F040030F
:1016900013634A4B1B6B03F040037B607B680022A3
:1016A0007021474804F074FB00224FF4085145486C
:1016B00004F06EFB00224FF4E071434804F068FB35
:1016C00000224FF48071414804F062FB002208219F
:1016D0003F4804F05DFB70237B620123BB62002363
:1016E000FB6200233B6307F124031946344804F0EE
:1016F0009BF94FF408537B620123BB620023FB621A
:1017000000233B6307F1240319462E4804F08CF9AB
:10171000C0237B620023BB620023FB6207F124032A
:1017200019462A4804F080F930237B620023BB620B
:101730000023FB6207F124031946224804F074F9E0
:101740004FF4E0737B620123BB620023FB62002342
:101750003B6307F1240319461B4804F065F94FF475
:1017600088537B620023BB620123FB6207F12403E1
:101770001946144804F058F94FF480737B62012332
:10178000BB620023FB6200233B6307F1240319467D
:101790000E4804F049F908237B620123BB62002351
:1017A000FB6200233B6307F124031946084804F059
:1017B0003BF900BF3837BD4680BD00BF003802404E
:1017C00000100240000802400018024000000240E1
:1017D000000C024080B500AF124B134A1A60114B47
:1017E000124A5A600F4B00229A600E4B0022DA60B8
:1017F0000C4B4FF480421A610A4B00225A61094B8C
:1018000000229A61074B0022DA61064B00221A621D
:10181000044804F0D7FA0346002B01D000F074FF0F
:1018200000BF80BD8C0A002000540040A08601004B
:1018300080B58AB000AF786007F1140300221A6007
:101840005A609A60DA601A617B681B68194A934291
:101850002BD100233B61184B1B6B174A43F002034B
:101860001363154B1B6B03F002033B613B69C02301
:101870007B611223BB610023FB6103233B620423D2
:101880007B6207F1140319460C4804F0CDF80023DD
:10189000FB60094B1B6C084A43F400131364064BAE
:1018A0001B6C03F40013FB60FB6800BF2837BD46C8
:1018B00080BD00BF005400400038024000040240D8
:1018C00080B483B000AF0346FB80044AFB881380DA
:1018D00000BF0C37BD465DF8047B7047FEFF0F600C
:1018E00080B483B000AF0346FB80044AFB8853807A
:1018F00000BF0C37BD465DF8047B7047FEFF0F60EC
:1019000080B483B000AF064B5B889BB2FB80FB8842
:101910009BB218460C37BD465DF8047B704700BF8C
:10192000FEFF0F6090B583B000AF04460846114635
:101930001A462346FB800346BB800B467B8013463A
:101940003B802A20FFF7BCFFFB881B0A9BB218468E
:10195000FFF7C6FFFB88DBB29BB21846FFF7C0FF5C
:101960007B881B0A9BB21846FFF7BAFF7B88DBB265
:101970009BB21846FFF7B4FF2B20FFF7A1FFBB88EF
:101980001B0A9BB21846FFF7ABFFBB88DBB29BB2CA
:101990001846FFF7A5FF3B881B0A9BB21846FFF7C6
:1019A0009FFF3B88DBB29BB21846FFF799FF2C20C4
:1019B000FFF786FF00BF0C37BD4690BD80B584B0F1
:1019C00000AF0346FB80154B1B88013B9AB2134BBB
:1019D0005B88013B9BB200210020FFF7A3FF00239F
:1019E000FB8111E00023BB8106E0FB881846FFF76E
:1019F00077FFBB890133BB81084B5B88BA899A4268
:101A0000F3D3FB890133FB81044B1B88FA899A428B
:101A1000E8D300BF00BF1037BD4680BDE00A0020FC
:101A200090B585B000AF0446084611461A462346D5
:101A3000FB800346BB800B467B8013463B807B8844
:101A4000013B9AB23B88013B9BB2B988F888FFF70B
:101A500069FFBB88FB8110E0FB88BB8106E03B8C03
:101A60001846FFF73DFFBB890133BB81BA897B88EC
:101A70009A42F4D3FB890133FB81FA893B889A426D
:101A8000EAD300BF00BF1437BD4690BD80B582B019
:101A900000AF0346FB800B46BB8013467B80BB88B0
:101AA000FA88B988F888FFF73DFF7B881846FFF76A
:101AB00017FF00BF0837BD4680BD90B58DB000AFA1
:101AC0000446084611461A462346FB800346BB805F
:101AD0000B467B8013463B800023BB6200237B6266
:101AE0007A88FB88D31A3B623A88BB88D31AFB6199
:101AF000FB88FB60BB88BB603B6A002B02DD0123D7
:101B00007B610BE03B6A002B02D100237B6105E087
:101B10004FF0FF337B613B6A5B423B62FB69002B0A
:101B200002DD01233B610BE0FB69002B02D10023A6
:101B30003B6105E04FF0FF333B61FB695B42FB61BA
:101B40003A6AFB699A4202DD3B6ABB6101E0FB69CC
:101B5000BB610023FB852BE0FB689BB2BA6891B2A6
:101B6000B7F840201846FFF791FFBA6A3B6A134462
:101B7000BB627A6AFB6913447B62BA6ABB699A42A8
:101B800007DDBA6ABB69D31ABB62FA687B69134482
:101B9000FB607A6ABB699A4207DD7A6ABB69D31A2D
:101BA0007B62BA683B691344BB60FB8D0133FB85E4
:101BB000FB8DBA699A42CFDA00BF00BF3437BD4609
:101BC00090BD000090B587B000AF044608461146AE
:101BD0001A462346FB800346BB800B46FB70134628
:101BE0003B8000237B75FB883B8297F82C305B0899
:101BF000FB73FB7BDB08DBB21A46FB7B03F00703BE
:101C0000DBB2002B14BF01230023DBB213449AB2D2
:101C100097F82C309BB212FB03F3BB81FB78203B7F
:101C2000FB70FB7B9AB2FB8813449BB2013B9CB2D6
:101C300097F82C309AB2BB8813449BB2013B9BB2FD
:101C4000B988F8882246FFF76DFE00237B827AE090
:101C500097F82C300C2B28D097F82C30102B08D16B
:101C6000FA787B8A3C4912010A4413441B78FB75BD
:101C70001BE097F82C30182B0BD1FA78798A37486B
:101C800013465B0013441B0103440B441B78FB7594
:101C90000BE097F82C30202B5AD1FA787B8A304908
:101CA00092010A4413441B78FB750023BB7544E082
:101CB00097F83030002B20D1FA7DBB7D42FA03F338
:101CC00003F00103002B04D03B881846FFF708FE01
:101CD00003E03B8D1846FFF703FE7B7D01337B75E8
:101CE0007B7DFA7BB3FBF2F102FB01F29B1ADBB2C4
:101CF000002B1FD100237B7522E0FA7DBB7D42FAC9
:101D000003F303F00103002B05D03A88B988FB8860
:101D10001846FFF7BBFEFB880133FB80FA883B8A3D
:101D2000D21AFB7B9A4205D13B8AFB80BB880133E8
:101D3000BB8005E0BB7D0133BB75BB7D072BB7D9ED
:101D40007B8A01337B827A8ABB899A4280D300E006
:101D500000BF1C37BD4690BDE4AF0008D4B50008F5
:101D6000A4C7000880B485B000AF03460A46FB71E3
:101D70001346BB710123FB6004E0FA79FB6802FBA8
:101D800003F3FB60BB795A1EBA71002BF5D1FB68D7
:101D900018461437BD465DF8047B704790B589B08E
:101DA00004AF0446084611461A462346FB80034604
:101DB000BB800B467B8013467B700023BB7397F878
:101DC00028305B087B730023FB7359E07C887A78AA
:101DD000FB7BD31ADBB2013BDBB219460A20FFF7CB
:101DE000C1FF0346B4FBF3F12A4BA3FB0123DA083E
:101DF00013469B0013445B00CA1A13463B73BB7B1C
:101E0000002B21D1FA7B7B78013B9A421CDA3B7B89
:101E1000002B17D1FB7B9AB27B7B9BB212FB03F3A7
:101E20009AB2FB88134498B23A8CB9880023029383
:101E300097F828300193BB8C009313462022FFF7BC
:101E4000C1FE1AE00123BB73FB7B9AB27B7B9BB282
:101E500012FB03F39AB2FB88134498B23B7B3033F6
:101E6000DAB23C8CB9880023029397F828300193AA
:101E7000BB8C00932346FFF7A5FEFB7B0133FB736E
:101E8000FA7B7B789A42A1D300BF00BF1437BD46CE
:101E900090BD00BFCDCCCCCC80B483B000AF0346A6
:101EA000FB71FB791B09DBB203F00303DBB2002BF0
:101EB00007D00A4B4FF4A0721A80084BF0225A80C8
:101EC00006E0064BF0221A80044B4FF4A0725A80B1
:101ED00000BF0C37BD465DF8047B7047E00A002068
:101EE00080B500AF00224FF40051AA4803F050FF24
:101EF0004FF4FA7002F084FE01224FF40051A5481D
:101F000003F046FF4FF4FA7002F07AFE0020FFF76C
:101F1000C3FFD320FFF7D4FCFFF7F2FC03461A46B9
:101F20009D4B9A80FFF7ECFC03461A469A4B9A8029
:101F3000FFF7E6FC03461A46974B9A80964B9B8820
:101F40001B029AB2944B9A80FFF7DAFC03461A46BA
:101F5000914B9B8813439AB28F4B9A80CF20FFF707
:101F6000AFFC0020FFF7BCFCC120FFF7B9FC30201C
:101F7000FFF7B6FCED20FFF7A3FC6420FFF7B0FCF1
:101F80000320FFF7ADFC1220FFF7AAFC8120FFF72A
:101F9000A7FCE820FFF794FC8520FFF7A1FC1020A8
:101FA000FFF79EFC7A20FFF79BFCCB20FFF788FC15
:101FB0003920FFF795FC2C20FFF792FC0020FFF75B
:101FC0008FFC3420FFF78CFC0220FFF789FCF72000
:101FD000FFF776FC2020FFF783FCEA20FFF770FC78
:101FE0000020FFF77DFC0020FFF77AFCC020FFF700
:101FF00067FC1B20FFF774FCC120FFF761FC012088
:10200000FFF76EFCC520FFF75BFC3020FFF768FC94
:102010003020FFF765FCC720FFF752FCB720FFF721
:102020005FFC3620FFF74CFC0820FFF759FC3A20F4
:10203000FFF746FC5520FFF753FCB120FFF740FCAB
:102040000020FFF74DFC1A20FFF74AFCB620FFF7EF
:1020500037FC0A20FFF744FCA220FFF741FCF220E6
:10206000FFF72EFC0020FFF73BFC2620FFF728FCA3
:102070000120FFF735FCE020FFF722FC0F20FFF7DF
:102080002FFC2A20FFF72CFC2820FFF729FC082032
:10209000FFF726FC0E20FFF723FC0820FFF720FCAB
:1020A0005420FFF71DFCA920FFF71AFC4320FFF77F
:1020B00017FC0A20FFF714FC0F20FFF711FC00208B
:1020C000FFF70EFC0020FFF70BFC0020FFF708FCD9
:1020D0000020FFF705FCE120FFF7F2FB0020FFF7EF
:1020E000FFFB1520FFF7FCFB1720FFF7F9FB07208C
:1020F000FFF7F6FB1120FFF7F3FB0620FFF7F0FBDD
:102100002B20FFF7EDFB5620FFF7EAFB3C20FFF703
:10211000E7FB0520FFF7E4FB1020FFF7E1FB0F20B2
:10212000FFF7DEFB3F20FFF7DBFB3F20FFF7D8FB8D
:102130000F20FFF7D5FB2B20FFF7C2FB0020FFF796
:10214000CFFB0020FFF7CCFB0120FFF7C9FB3F20AE
:10215000FFF7C6FB2A20FFF7B3FB0020FFF7C0FB09
:102160000020FFF7BDFB0020FFF7BAFBEF20FFF7D1
:10217000B7FB1120FFF7A4FB782002F041FD2920D6
:10218000FFF79EFB01224FF48071044803F000FE2C
:1021900000BF80BD00080240E00A002000000240AD
:1021A00080B584B000AFF860B9607A603B60FB68CE
:1021B0009AB27B689BB2134498B2BB689AB23B68F0
:1021C0009BB213449BB23A8B1946FFF75FFCFB6846
:1021D0009AB27B689BB2D31A98B2BB689AB23B683A
:1021E0009BB213449BB23A8B1946FFF74FFCFB6836
:1021F0009AB27B689BB2134498B2BB689AB23B68B0
:102200009BB2D31A9BB23A8B1946FFF73FFCFB688F
:102210009AB27B689BB2D31A98B2BB689AB23B68F9
:102220009BB2D31A9BB23A8B1946FFF72FFCFB687F
:102230009AB23B689BB2134498B2BB689AB27B686F
:102240009BB213449BB23A8B1946FFF71FFCFB6805
:102250009AB23B689BB2D31A98B2BB689AB27B68B9
:102260009BB213449BB23A8B1946FFF70FFCFB68F5
:102270009AB23B689BB2134498B2BB689AB27B682F
:102280009BB2D31A9BB23A8B1946FFF7FFFBFB6850
:102290009AB23B689BB2D31A98B2BB689AB27B6879
:1022A0009BB2D31A9BB23A8B1946FFF7EFFB00BFE4
:1022B0001037BD4680BD80B58AB002AFF860B96006
:1022C0003B601346FB800023FB613B68BB613B68BE
:1022D0005B00C3F103033B61BB6A002B4FD029E0D5
:1022E000FB697B610AE0FB8800937B69FA69B96846
:1022F000F868FFF755FF7B6901337B617A69BB6939
:102300009A42F0DD3B69002B06DAFB699A003B69D3
:10231000134406333B610AE0FA69BB69D31A9A0099
:102320003B6913440A333B61BB69013BBB61FB69F9
:102330000133FB61FA69BB699A42D1DD23E0FB8876
:102340000093BB69FA69B968F868FFF729FF3B6930
:10235000002B06DAFB699A003B69134406333B61A4
:102360000AE0FA69BB69D31A9A003B6913440A333D
:102370003B61BB69013BBB61FB690133FB61FA69EE
:10238000BB699A42DBDD00BF2037BD4680BD00003F
:1023900090B58BB004AFBA601A460346FB810B467A
:1023A000BB811346FB80FB89BB820023FB7548E0A1
:1023B000FB7D002B45D1FA89264B1B88194697F8DF
:1023C0002C305B08DBB2CB1A9A423FDCBA89214B36
:1023D0005B88194697F82C30CB1A9A4236DCBB68DA
:1023E0001B78802B02D90123FB752AE0BB681B7880
:1023F0000D2B0BD197F82C309AB2BB891344BB81BB
:10240000BB8AFB81BB680133BB6017E0BB681A78ED
:10241000FC88B989F88997F83030029397F82C3006
:1024200001933B8D00932346FFF7CCFB97F82C30AC
:102430005B08DBB29AB2FB891344FB81BB680133B2
:10244000BB60BB681B78002BB2D100E000BF1C371B
:10245000BD4690BDE00A002080B500AF3F4B1B8811
:10246000DBB29AB23D4B1A803D4B1B683D4AD35CB0
:102470001B021AB2394B1B881BB213431BB29AB210
:10248000364B1A80364B1B68032B47D801A252F8F3
:1024900023F000BFA5240008C3240008E12400089D
:1024A000FF2400082D4B1B8843F0B0039AB22B4B3E
:1024B0001A802A4B1B8823F040039AB2274B1A80BC
:1024C0002DE0264B1B8843F0D0039AB2234B1A8091
:1024D000224B1B8823F020039AB2204B1A801EE067
:1024E0001E4B1B8843F0E0039AB21C4B1A801B4B17
:1024F0001B8823F010039AB2184B1A800FE0174B79
:102500001B8843F070039AB2144B1A80134B1B883C
:1025100023F080039AB2114B1A8000E000BF104BE9
:102520001B6801335A4203F0030302F0030258BF51
:1025300053420B4A1360002240210B4803F028FC51
:10254000012302220549094805F0F9F8012240213A
:10255000054803F01DFC00BF80BD00BF0C0000203B
:102560000401002008000020001802401C0B00207D
:1025700080B500AF02F0D2FA00F030F8FFF714F89F
:1025800001F0A8F800F086FEFEF73EFFFFF722F903
:1025900001F0ECF8FEF734FEFEF772FC01F04AF8A9
:1025A00002F0B2F902F0DAF900F082F8642000F0EB
:1025B00035FD0A2000F06AFD0A2000F083FD00BF0F
:1025C000054B1B88002BFBD0034B00221A8002F026
:1025D00059F8FEF735FEF2E76009002080B594B0A7
:1025E00000AF07F1200330220021184607F072FBEC
:1025F00007F10C0300221A605A609A60DA601A61CF
:102600000023BB60284B1B6C274A43F080531364A4
:10261000254B1B6C03F08053BB60BB6800237B60C1
:10262000224B1B68214A43F4804313601F4B1B68F5
:1026300003F480437B607B6802233B620123FB62DF
:1026400010233B630223BB630023FB6308233B642B
:10265000A8237B640223BB640423FB6407F12003EB
:10266000184604F06FFB0346002B01D000F04CF835
:102670000F23FB6002233B6100237B614FF4A053D7
:10268000BB614FF4A053FB6107F10C030521184611
:1026900004F0D0FD0346002B01D000F035F800BF58
:1026A0005037BD4680BD00BF00380240007000407A
:1026B00080B584B004AF00F087FCFFF711FC01F097
:1026C000D1FF322000F08EFC0020FFF777F94FF4A5
:1026D000784300934FF48C73AA22DC214620FFF745
:1026E0009FF901230293182301934FF6FF73009380
:1026F0004FF6FF73034AEB215F20FFF749FE00BF4F
:10270000BD4680BDC8AE000880B400AF72B600BF41
:10271000FEE7000080B584B004AF012302931823C4
:1027200001934FF6FF7300934FF6FF730A4A5A2145
:102730003C20FFF72DFE01230293202301934FF647
:10274000FF7300934FF6FF73044A78212820FFF7A8
:102750001FFE00BFBD4680BDD8AE0008E4AE000835
:1027600080B582B002AF4FF6FF730093C823F0220A
:1027700000210020FFF754F901230093142340F2B5
:10278000FF72E6217820FFF796FD012300931423C2
:1027900040F2FF724FF48C717820FFF78CFD01231B
:1027A0000093142340F2FF724FF48C713220FFF734
:1027B00082FD01230093142340F2FF724FF48C71C9
:1027C000BE20FFF778FD00BFBD4680BD80B584B058
:1027D00004AF01230293182301934FF6FF73009374
:1027E0004FF6FF730B4ACD210020FFF7D1FD0A4BB6
:1027F0001B789AB218230293002301934FF6FF73BC
:1028000000930223CD214620FFF7C8FA00BFBD4642
:1028100080BD00BFF0AE00085809002080B584B02C
:1028200004AF01230293202301934FF6FF7300931B
:102830004FF6FF73124A6E212820FFF7A9FD0123EE
:102840000293182301934FF6FF7300934FF6FF7323
:102850000C4ADC214620FFF79BFD0B4B1B789AB2FC
:1028600018230293002301934FF6FF730093022372
:10287000DC219620FFF792FA00BFBD4680BD00BF65
:10288000F8AE0008F0AE00085809002080B584B00A
:1028900002AF786039600123009305234FF4FC6296
:1028A00039687868FFF707FD00BF0837BD4680BD6F
:1028B00080B584B002AF78603960012300930523AE
:1028C0004FF4784239687868FFF7F5FC00BF0837A5
:1028D000BD4680BD80B584B002AF78603960012309
:1028E000009305234FF61F0239687868FFF7E3FC71
:1028F00000BF0837BD4680BD80B584B002AF7860A8
:10290000396001230093052348F230423968786822
:10291000FFF7D1FC00BF0837BD4680BD80B584B04D
:1029200002AF786039600123009305234FF6FF72F0
:1029300039687868FFF7BFFC00BF0837BD4680BD27
:1029400080B582B000AF00237B608BE000233B604A
:1029500081E049497A6813469B0013449B003A681A
:10296000134451F82330022B0FD17A6813469B0091
:1029700013445B00581D3A6813469B0013445B00E8
:1029800005331946FFF782FF62E03B497A68134638
:102990009B0013449B003A68134451F82330042BE6
:1029A0000FD17A6813469B0013445B00581D3A68A8
:1029B00013469B0013445B0005331946FFF78AFF5B
:1029C00046E02D497A6813469B0013449B003A6801
:1029D000134451F82330012B0FD17A6813469B0022
:1029E00013445B00581D3A6813469B0013445B0078
:1029F00005331946FFF75CFF2AE01F497A68134642
:102A00009B0013449B003A68134451F82330032B76
:102A10000FD17A6813469B0013445B00581D3A6837
:102A200013469B0013445B0005331946FFF764FF10
:102A30000EE07A6813469B0013445B00581D3A6809
:102A400013469B0013445B0005331946FFF766FFEE
:102A50003B6801333B603B68132B7FF77AAF7B68A1
:102A600001337B607B68172B7FF770AF00BF00BF1F
:102A70000837BD4680BD00BF0801002080B483B088
:102A800000AF00237B6016E000233B600DE00F49A0
:102A90007A6813469B0013449B003A681344002253
:102AA00041F823203B6801333B603B68132BEEDD8C
:102AB0007B6801337B607B68172BE5DD00BF00BFBF
:102AC0000C37BD465DF8047B704700BF080100204D
:102AD00080B586B000AF634B1B68013B7B6114E09F
:102AE000614A7B6952F823205F497B69183351F8AA
:102AF00023105E4813469B0013449B000B440022A6
:102B000040F823207B69013B7B617B69002BE7DA7E
:102B1000554B1A68544B196E544813469B00134486
:102B20009B000B44002240F823204E4B1B68013BC6
:102B30004D4A52F823304E4A13604A4B1B68013B02
:102B4000494A183352F823304A4A1360454B1B68F0
:102B5000013B454A52F82310474B1A68414B1B680A
:102B6000013B0A44404941F823203E4B1B68013B8E
:102B70003D4A183352F823103F4B5A68394B1B68B3
:102B8000013B0A443849183341F82320354B1B6870
:102B9000013B354A52F82330384A1360314B1B68E9
:102BA000013B314A183352F82330344A53602D4BDD
:102BB0001B68023B3B6120E02B4A3B6952F8233003
:102BC000BB60294A3B69183352F823307B60284B9D
:102BD0001A6825493B6941F82320264B1A68224987
:102BE0003B69183341F82320214ABB681360214A0E
:102BF0007B6813603B69013B3B613B69002BDBDA7F
:102C0000184B1B68023BFB6014E0174AFB6852F844
:102C100023201549FB68183351F823101348134635
:102C20009B0013449B000B44022240F82320FB68C6
:102C3000013BFB60FB68002BE7DA00F0ABF800F02B
:102C400053F90E4B1A680D4B5968084813469B0000
:102C500013449B000B44042240F8232000BF183784
:102C6000BD4680BD1000002088080020080100201B
:102C7000480900204C0900201400002050090020C1
:102C800080B500AFFFF7FAFE164B02221A60154B13
:102C900002221A65144B00221A60134B00221A6696
:102CA000114B01225A60104B00225A660F4B022230
:102CB0001A600F4B01221A600D4B00225A600D4B17
:102CC00001221A600C4B01221A600C4B01221A607F
:102CD0000B4B01221A600B4B00221A7000F014F803
:102CE00000BF80BD080100208808002010000020DF
:102CF000140000201C0000202000002024000020E0
:102D0000280000205809002080B582B000AF1720AD
:102D100000F02CF87860132000F028F8386007E005
:102D2000172000F023F87860132000F01FF83860B7
:102D30000D497A6813469B0013449B003A6813447C
:102D400051F82330022BEBD007497A6813469B00D9
:102D500013449B003A681344012241F8232000BF2A
:102D60000837BD4680BD00BF0801002080B584B093
:102D700000AF786007F060F802467B68013392FB91
:102D8000F3F103FB01F3D31AFB60FB68184610371D
:102D9000BD4680BD80B400AF234B1B68172B03DCFE
:102DA000214B1B68002B02DA204B01221A601E4BBC
:102DB0005B68132B03DC1C4B5B68002B02DA1B4B9C
:102DC00001221A60184B1A68174B596818481346A5
:102DD0009B0013449B000B4450F82330022B02D17C
:102DE000124B01221A60104B1A680F4B5968104899
:102DF00013469B0013449B000B4450F82330032BD5
:102E000002D10A4B01221A600A4B1B68002B05D124
:102E1000064B01221A60074BB4221A6000BFBD4660
:102E20005DF8047B704700BF500900205C0900205A
:102E3000080100200400002080B400AF254B1B686F
:102E4000002B0CD1244B5B68002B08D1224B0022B5
:102E50001A60214B01225A601E4B01221A601F4B3F
:102E60001B68002B0DD11C4B5B68002B09D11A4B42
:102E700000221A60184B4FF0FF325A60174B0122A4
:102E80001A60174B1B68002B0CD1134B1B68002BCF
:102E900008D1114B01221A600F4B00225A60104BCF
:102EA00001221A600F4B1B68002B0DD10A4B1B68C7
:102EB000002B09D1084B4FF0FF321A60064B00225D
:102EC0005A60084B01221A6000BFBD465DF8047BC2
:102ED000704700BF20000020140000201C000020CC
:102EE000240000202800002080B582B000AF314BC4
:102EF0001A68304B5968304813469B0013449B00B6
:102F00000B4450F82330012B50D12C4B1B7801334C
:102F1000DAB22A4B1A702A4B1B680133284A136015
:102F2000274B1B68013B7B6016E07B68013B254A11
:102F300052F8232023497B6841F823207B68013B1A
:102F4000204A183352F823201E497B68183341F871
:102F500023207B68013B7B607B68002BE5DC154B05
:102F60001B68184A1360134B5B68164A13660023EC
:102F70003B6014E0134A3B6852F8232011493B6838
:102F8000183351F823100C4813469B0013449B0040
:102F90000B44022240F823203B6801333B60084B7E
:102FA0001B683A689A42E5DBFFF7AEFE00BF0837C0
:102FB000BD4680BD500900200801002058090020AE
:102FC000100000208808002080B500AF034804F0FE
:102FD000B9FE034804F04EFE00BF80BD040C002083
:102FE000BC0B002080B483B000AF0346FB80084ACE
:102FF000FB881380064B1A88064B1A80064B00226A
:103000001A8000BF0C37BD465DF8047B704700BFD7
:1030100064090020620900206009002080B483B0A8
:1030200000AF0346FB80084AFB881380064B1A88D2
:10303000064B1A80064B00221A8000BF0C37BD4693
:103040005DF8047B704700BF6A0900206809002012
:103050006609002080B483B000AF0346FB80084AB5
:10306000FB881380064B1A88064B1A80064B0022F9
:103070001A8000BF0C37BD465DF8047B704700BF67
:10308000700900206E0900206C09002080B483B014
:1030900000AF0346FB80084AFB881380064B1A8862
:1030A000064B1A80064B00221A8000BF0C37BD4623
:1030B0005DF8047B704700BF76090020740900208A
:1030C0007209002080B483B000AF0346FB80084A39
:1030D000FB881380064B1A88064B1A80064B002289
:1030E0001A8000BF0C37BD465DF8047B704700BFF7
:1030F00082090020800900207E09002080B582B06E
:1031000000AF78607B681B68B3F1804F7FD1424B82
:103110001B88002B10D0404B1B88013B9AB23E4BC2
:103120001A803D4B1B88002B06D13C4B01221A8094
:103130003B4B1A88384B1A803A4B1B88002B10D017
:10314000384B1B88013B9AB2364B1A80354B1B8893
:10315000002B06D1344B01221A80344B1A88314B94
:103160001A80334B1B88002B10D0314B1B88013B3E
:103170009AB22F4B1A802E4B1B88002B06D12D4B59
:1031800001221A802C4B1A88294B1A802B4B1B8842
:10319000002B10D0294B1B88013B9AB2274B1A8079
:1031A000264B1B88002B06D1254B01221A80254B6C
:1031B0001A88224B1A80244B1B88002B10D0224BDC
:1031C0001B88013B9AB2204B1A801F4B1B88002B97
:1031D00006D11E4B01221A801D4B1A881A4B1A80E9
:1031E0001C4B1B88002B10D01A4B1B88013B9AB23A
:1031F000184B1A80174B1B88002B06D1164B012247
:103200001A80164B1A88134B1A80FFF725F900BF56
:103210000837BD4680BD00BF62090020600900205C
:103220006409002068090020660900206A0900205E
:103230006E0900206C09002070090020740900202C
:1032400072090020760900207A0900207809002000
:103250007C090020800900207E09002082090020CE
:1032600080B483B000AF0346FB80094B1B6800228B
:103270005A6200BF064B1B685A6AFB889A42F9D310
:1032800000BF00BF0C37BD465DF8047B704700BF30
:10329000BC0B002080B500AF174B184A1A60164BC4
:1032A0004FF482725A60144B00229A60124B002233
:1032B000DA60114B00221A610F4B00225A610E4B4B
:1032C0004FF400729A610C4B0022DA610A4B002223
:1032D0001A62094B00225A62074B00229A62064B7F
:1032E0000A22DA62044804F0A1F90346002B01D057
:1032F000FFF70AFA00BF80BD1C0B00200030014020
:1033000080B58AB000AF786007F1140300221A601C
:103310005A609A60DA601A617B681B68194A9342A6
:103320002BD100233B61184B5B6C174A43F480534D
:103330005364154B5B6C03F480533B613B69002382
:10334000FB60114B1B6B104A43F0020313630E4BDF
:103350001B6B03F00203FB60FB6838237B610223D5
:10336000BB610023FB6103233B6205237B6207F102
:1033700014031946054802F057FB00BF2837BD4625
:1033800080BD00BF00300140003802400004024010
:1033900080B483B000AF00237B60104B5B6C0F4A9E
:1033A00043F4804353640D4B5B6C03F480437B60B8
:1033B0007B6800233B60094B1B6C084A43F0805339
:1033C0001364064B1B6C03F080533B603B6800BFEB
:1033D0000C37BD465DF8047B704700BF00380240E3
:1033E00080B400AFFEE780B400AFFEE780B400AF6A
:1033F000FEE780B400AFFEE780B400AFFEE780B424
:1034000000AF00BFBD465DF8047B704780B400AFDD
:1034100000BFBD465DF8047B704780B400AF00BFBD
:10342000BD465DF8047B704780B500AF01F0C8FB76
:1034300000BF80BD80B500AF024804F04CFD00BF66
:1034400080BD00BF040C002080B500AF024805F02D
:1034500087FC00BF80BD00BFB00D002080B500AF6D
:10346000024805F07DFC00BF80BD00BFF40D0020C8
:1034700080B500AF024802F09BF800BF80BD00BFDE
:10348000DC09002080B400AF01231846BD465DF87A
:10349000047B704780B582B000AF7860396006F079
:1034A000E7FB034616221A604FF0FF331846083731
:1034B000BD4680BD80B582B000AF78604FF0FF316F
:1034C0007868FFF7E7FFFEE780B586B000AFF860E9
:1034D000B9607A6000237B610AE0AFF300800146A7
:1034E000BB685A1CBA60CAB21A707B6901337B612F
:1034F0007A697B689A42F0DB7B6818461837BD46CC
:1035000080BD80B586B000AFF860B9607A600023F6
:103510007B6109E0BB685A1CBA601B781846AFF3A0
:1035200000807B6901337B617A697B689A42F1DBB9
:103530007B6818461837BD4680BD80B483B000AFA5
:1035400078604FF0FF3318460C37BD465DF8047BBA
:10355000704780B483B000AF786039603B684FF447
:1035600000525A60002318460C37BD465DF8047BB4
:10357000704780B483B000AF7860012318460C37E1
:10358000BD465DF8047B704780B485B000AFF8603D
:10359000B9607A60002318461437BD465DF8047B95
:1035A0007047000080B586B000AF7860144A154BB4
:1035B000D31A7B617B693B61134B1B68002B02D1E3
:1035C000114B124A1A60104B1A687B6813443A690F
:1035D0009A4207D206F04CFB03460C221A604FF0C9
:1035E000FF3309E0084B1B68FB60074B1A687B68D8
:1035F0001344054A1360FB6818461837BD4680BD62
:10360000000002200004000084090020500E002069
:1036100080B400AF064BD3F88830054A43F47003FA
:10362000C2F8883000BFBD465DF8047B704700BF1C
:1036300000ED00E080B586B000AF07F1080300227E
:103640001A605A609A60DA603B4600221A605A603B
:103650001E4B1F4A1A601D4B53225A601B4B0022FF
:103660009A601A4B4FF6FF72DA60184B00221A610B
:10367000164B00225A61154B00229A61134804F040
:10368000A9FA0346002B01D0FFF73EF84FF4805310
:10369000BB6007F1080319460C4804F0E7FD034638
:1036A000002B01D0FFF730F800233B6000237B6044
:1036B0003B461946054805F0B3F90346002B01D0F7
:1036C000FFF722F800BF1837BD4680BDBC0B0020B5
:1036D0000000014080B586B000AF07F1080300226A
:1036E0001A605A609A60DA603B4600221A605A609B
:1036F0001D4B4FF080421A601B4B40F247325A601C
:10370000194B00229A60184B6322DA60164B002294
:103710001A61154B00229A61134804F05BFA0346C4
:10372000002B01D0FEF7F0FF4FF48053BB6007F190
:10373000080319460C4804F099FD0346002B01D0FC
:10374000FEF7E2FF00233B6000237B603B46194607
:10375000054805F065F90346002B01D0FEF7D4FFBC
:1037600000BF1837BD4680BD040C002080B588B06E
:1037700000AF3B1D00221A605A609A60DA601A613D
:103780005A619A611E4B1F4A1A601D4B40F2473224
:103790005A601B4B00229A60194B6322DA60184B67
:1037A00000221A61164B00229A61154804F012FAA1
:1037B0000346002B01D0FEF7A7FF114804F032FBAF
:1037C0000346002B01D0FEF79FFF60237B600023A0
:1037D000BB600023FB6000237B613B1D0022194678
:1037E000074804F081FC0346002B01D0FEF78CFF54
:1037F000034800F05BF800BF2037BD4680BD00BF26
:10380000740B0020001C004080B586B000AF7860CB
:103810007B681B68224A93420ED100237B61214BB7
:103820005B6C204A43F0010353641E4B5B6C03F056
:1038300001037B617B692EE07B681B68B3F1804FDD
:1038400016D100233B61174B1B6C164A43F0010352
:103850001364144B1B6C03F001033B613B690022B2
:1038600000211C2001F02DFD1C2001F046FD12E07E
:103870007B681B680C4A93420DD10023FB60094B07
:103880001B6C084A43F080031364064B1B6C03F067
:103890008003FB60FB6800BF1837BD4680BD00BFDA
:1038A0000000014000380240001C004080B588B094
:1038B00000AF786007F10C0300221A605A609A602A
:1038C000DA601A617B681B68124A93421ED100239A
:1038D000BB60114B1B6B104A43F0200313630E4B6C
:1038E0001B6B03F02003BB60BB684FF48073FB606D
:1038F00002233B6100237B610023BB610923FB6141
:1039000007F10C031946054802F08EF800BF203776
:10391000BD4680BD001C004000380240001402403B
:1039200080B584B000AF0346FB710023FB73002316
:10393000FB7325E097F90730002B06DA01224FF4DC
:103940000071134802F024FA05E000224FF40071E0
:103950000F4802F01DFAFB795B00FB7100224FF467
:1039600080710C4802F014FA0120FFF779FC012263
:103970004FF48071074802F00BFAFB7B0133FB73B5
:10398000FB7B072BD6D900BF00BF1037BD4680BDDB
:10399000000802400018024080B584B000AF034622
:1039A000FB710023FB730023BB8100224FF4807165
:1039B0002F4802F0EDF900224FF400712D4802F07B
:1039C000E7F9002280212A4802F0E2F9FB79184643
:1039D000FFF7A6FF0620FFF743FC00224FF480719B
:1039E000234802F0D5F90120FFF73AFC01224FF4F9
:1039F00080711F4802F0CCF90120FFF731FC002252
:103A00004FF480711A4802F0C3F90023FB731FE0E2
:103A1000BB895B00BB8100224FF48071144802F027
:103A2000B7F90120FFF71CFC01224FF48071104808
:103A300002F0AEF94FF480510E4802F091F90346BE
:103A4000002B02D0BB890133BB81FB7B0133FB73AD
:103A5000FB7B0F2BDCD9BB891B09BB810122802199
:103A6000034802F095F9BB8918461037BD4680BD62
:103A7000001802400008024090B589B000AF03462C
:103A8000FB7100237B830023FB830FE0FC8BFB791E
:103A90001846FFF781FF03461A46630007F120012D
:103AA0000B4423F8142CFB8B0133FB83FB8B042B7F
:103AB000ECD90023FB833BE0FB8B0133BB8331E07C
:103AC000FB8B5B0007F12002134433F8142CBB8BF3
:103AD0005B0007F120010B4433F8143C9A421ED9D5
:103AE000FB8B5B0007F12002134433F8143C3B834B
:103AF000BB8BFA8B5B0007F120010B4433F8141CDD
:103B0000530007F1200213440A4623F8142CBB8B00
:103B10005B0007F1200213443A8B23F8142CBB8B73
:103B20000133BB83BB8B042BCAD9FB8B0133FB83D3
:103B3000FB8B032BC0D900237B830123FB830CE089
:103B4000FB8B5B0007F12002134433F8142C7B8BB2
:103B500013447B83FB8B0133FB83FB8B032BEFD95C
:103B60007B8B054AA2FB03235B083B833B8B1846F8
:103B70002437BD4690BD00BFABAAAAAA80B584B0C9
:103B800000AF786039600C4B1B781846FFF774FF64
:103B90000346FB81094B1B781846FFF76DFF034670
:103BA000BB817B68FA891A803B68BA891A80012335
:103BB00018461037BD4680BD640000206500002017
:103BC00080B586B000AF7860396007F1120207F166
:103BD000140311461846FFF7D1FF0346FB75FB7D22
:103BE000002B01D1002349E007F10E0207F1100379
:103BF00011461846FFF7C2FF0346FB75FB7D002BFD
:103C000001D100233AE03A8ABB8A9A4204D83B8A1F
:103C10006333BA8A934208DABA8A3B8A9A422CD82A
:103C2000BB8A63333A8A934227DBFA897B8A9A42BA
:103C300004D8FB8963337A8A934208DA7A8AFB894B
:103C40009A421AD87B8A6333FA89934215DBBB8A7E
:103C50001A463B8A1344DA0F13445B109AB27B680E
:103C60001A807B8A1A46FB891344DA0F13445B10CF
:103C70009AB23B681A80012300E0002318461837E7
:103C8000BD4680BD90B585B002AF0346FB800B46B4
:103C9000BB8013467B80FB880C3B98B2FB880D33BE
:103CA0009AB2BC88B9887B8800932346FDF705FF4C
:103CB000BB880C3B99B2BB880D339CB2FA88F8885C
:103CC0007B8800932346FDF7F8FEFB88013398B20A
:103CD000BB8801339BB27A881946FDF7D7FEFB8873
:103CE000013B98B2BB8801339BB27A881946FDF735
:103CF000CDFEFB88013398B2BB88013B9BB27A882A
:103D00001946FDF7C3FEFB88013B98B2BB88013B17
:103D10009BB27A881946FDF7B9FEF888B9887A8887
:103D2000002300930623FEF7C6FA00BF0C37BD46FA
:103D300090BD000080B582B000AF0346FB714FF428
:103D40008071434802F00CF80346002B57D1FB79F1
:103D5000002B04D03F494048FFF732FF3CE03D498B
:103D60003D48FFF72DFF0346002B35D03B4B93ED2D
:103D7000097A3A4B9B8907EE903AF8EEE77A27EEFC
:103D8000277A364BB3F92C3007EE903AF8EEE77A03
:103D900077EE277AFCEEE77A17EE903A9AB22F4B3D
:103DA0009A812E4B93ED0A7A2C4BDB8A07EE903AE0
:103DB000F8EEE77A27EE277A284BB3F92E3007EE94
:103DC000903AF8EEE77A77EE277AFCEEE77A17EE8C
:103DD000903A9AB2214BDA82204B93F820305BB2B2
:103DE000002B2ADB1D4BC02283F820201B4B9A8915
:103DF0001A4B9A82194BDA8A184BDA831DE0174B5B
:103E000093F820305BB2002B09DA144B93F8203082
:103E100003F07F03DAB2114B83F820200DE00F4B43
:103E200000229A820D4B0022DA830C4B4FF6FF7270
:103E30009A810A4B4FF6FF72DA82084B93F82030D2
:103E400023F07F03DBB218460837BD4680BD00BFB4
:103E500000080240460000203C0000203000002006
:103E600080B500AF0E2205490020FDF7A9F9002119
:103E70000E20FDF745F900BF80BD00BF54000020B3
:103E800080B582B000AF0023FB710E20FDF71CF956
:103E90000346FB71FB79002B06D10E220549002059
:103EA000FDF76FF9012300E0002318460837BD46EF
:103EB00080BD00BF5400002080B58EB004AF002349
:103EC00087F82730002387F82730614B1A88604B2A
:103ED0005B884FF6FF71009100210020FDF7A0FDE7
:103EE00000230293102301934FF6FF7300934FF4C6
:103EF0007843584A28210520FEF74AFA0023029306
:103F0000102301934FF6FF7300934FF47843524A06
:103F100041210520FEF73CFA002302931023019370
:103F20004FF6FF7300934FF478434C4A5A21052013
:103F3000FEF72EFA4FF4784214211420FFF7A2FE68
:103F4000474B002283F82020454B4FF000025A6275
:103F5000322000F055FE424B5B6801209847404BF1
:103F600093F8203003F0C003402B40F05E833C4BBD
:103F700093F8203023F04003DAB2394B83F8202045
:103F800097F82730364A92899B0007F128010B44A5
:103F900023F8282C97F82730314AD28A9B0007F162
:103FA00028010B4423F8262C97F82730013387F893
:103FB000273097F82730013B032BC9D801A252F8CC
:103FC00023F000BFD53F0008F73F0008214000085C
:103FD000654000084FF6FF7214211420FFF752FECF
:103FE0001B4B1B88143B9BB24FF47842142118469C
:103FF000FFF748FE1AE3164B1B88143B9BB24FF6A3
:10400000FF7214211846FFF73DFE114B5B88143BED
:104010009BB24FF4784219461420FFF733FE05E3B4
:104020000B4B5B88143B9BB24FF6FF721946142072
:10403000FFF728FE064B1B88143B98B2044B5B88A5
:10404000143B9BB24FF478421946FFF71BFEEDE29A
:10405000E00A002004AF000820AF000838AF0008D5
:10406000300000203B881A46BB88D31A002BB8BF0B
:104070005B423B627B881A46FB88D31A002BB8BF91
:104080005B42FB613B6A03FB03F33B62FB6903FB9F
:1040900003F3FB613A6AFB6913441846FCF72AFAFA
:1040A00002460B4643EC102B06F016FE53EC102B89
:1040B00010461946FCF748FD03467B833B891A46A8
:1040C000BB89D31A002BB8BF5B423B627B891A467F
:1040D000FB89D31A002BB8BF5B42FB613B6A03FB31
:1040E00003F33B62FB6903FB03F3FB613A6AFB6981
:1040F00013441846FCF7FEF902460B4643EC102B1E
:1041000006F0EAFD53EC102B10461946FCF71CFD97
:1041100003463B837B8B07EE903AB8EE677A3B8B86
:1041200007EE903AF8EEE77AC7EE276A16EE900AA5
:10413000FCF702FA02460B46C7E9042384A3D3E93D
:104140000023D7E90401FCF7C1FC0346002B0FD183
:1041500081A3D3E90023D7E90401FCF7D5FC03468A
:10416000002B05D17B8B002B02D03B8B002B36D153
:10417000002387F827307A4B1B88143B98B2784B82
:104180005B88143B9BB24FF6FF721946FFF77AFD2E
:104190004FF4784214211420FFF774FD002302939A
:1041A000102301934FF6FF7300934FF478436D4A49
:1041B00028210520FEF7ECF8002302931023019339
:1041C0004FF6FF7300934FF47843674A3C21052074
:1041D000FEF7DEF84FF47A7000F012FD26E23B881D
:1041E0001A463B89D31A002BB8BF5B423B627B88DF
:1041F0001A467B89D31A002BB8BF5B42FB613B6A2E
:1042000003FB03F33B62FB6903FB03F3FB613A6AC5
:10421000FB6913441846FCF76DF902460B4643EC64
:10422000102B06F059FD53EC102B10461946FCF7E5
:104230008BFC03467B83BB881A46BB89D31A002BB1
:10424000B8BF5B423B62FB881A46FB89D31A002B3E
:10425000B8BF5B42FB613B6A03FB03F33B62FB6954
:1042600003FB03F3FB613A6AFB6913441846FCF74E
:1042700041F902460B4643EC102B06F02DFD53ECA2
:10428000102B10461946FCF75FFC03463B837B8BE3
:1042900007EE903AB8EE677A3B8B07EE903AF8EE6D
:1042A000E77AC7EE276A16EE900AFCF745F9024650
:1042B0000B46C7E9042326A3D3E90023D7E9040169
:1042C000FCF704FC0346002B09D123A3D3E9002308
:1042D000D7E90401FCF718FC0346002B46D0002365
:1042E00087F827301E4B1B88143B98B21C4B5B8809
:1042F000143B9BB24FF6FF721946FFF7C3FC4FF415
:10430000784214211420FFF7BDFC002302931023F0
:1043100001934FF6FF7300934FF47843114A28211D
:104320000520FEF735F800230293102301934FF682
:10433000FF7300934FF478430B4A3C210520FEF7AE
:1043400027F84FF47A7000F05BFC6FE1AFF3008068
:10435000666666666666EE3FCDCCCCCCCCCCF03FD4
:10436000E00A00204CAF00086CAF0008BB881A467A
:104370003B89D31A002BB8BF5B423B62FB881A46CD
:104380007B89D31A002BB8BF5B42FB613B6A03FBFE
:1043900003F33B62FB6903FB03F3FB613A6AFB69CE
:1043A00013441846FCF7A6F802460B4643EC102BC4
:1043B00006F092FC53EC102B10461946FCF7C4FB98
:1043C00003467B833B881A46BB89D31A002BB8BFB0
:1043D0005B423B627B881A46FB89D31A002BB8BF2D
:1043E0005B42FB613B6A03FB03F33B62FB6903FB3C
:1043F00003F3FB613A6AFB6913441846FCF77AF849
:1044000002460B4643EC102B06F066FC53EC102BD7
:1044100010461946FCF798FB03463B837B8B07EE5F
:10442000903AB8EE677A3B8B07EE903AF8EEE77A6F
:10443000C7EE276A16EE900AFCF77EF802460B4696
:10444000C7E9042383A3D3E90023D7E90401FCF7D8
:104450003DFB0346002B09D180A3D3E90023D7E914
:104460000401FCF751FB0346002B36D0002387F8EC
:104470002730714B1B88143B98B26F4B5B88143B01
:104480009BB24FF6FF721946FFF7FCFB4FF47842E0
:1044900014211420FFF7F6FB00230293102301934D
:1044A0004FF6FF7300934FF47843644A28210520A8
:1044B000FDF76EFF00230293102301934FF6FF7365
:1044C00000934FF478435E4A3C210520FDF760FFDE
:1044D0004FF47A7000F094FBA8E0574B1B88283B00
:1044E00007EE903AF8EEE76ABB881A463B88D31A83
:1044F00007EE903AB8EEE77AC6EE877A514BC3EDF5
:10450000097A4D4B1B8807EE903AB8EEE77A4D4B8F
:10451000D3ED096ABB881A463B88134407EE903AEC
:10452000F8EEE77A66EEA77A37EE677AF0EE006A81
:10453000C7EE267AFDEEE77A17EE903A1AB2414BB3
:104540009A853D4B5B88283B07EE903AF8EEE76A88
:104550007B891A467B88D31A07EE903AB8EEE77A41
:10456000C6EE877A374BC3ED0A7A334B5B8807EE8A
:10457000903AB8EEE77A334BD3ED0A6A7B891A4654
:104580007B88134407EE903AF8EEE77A66EEA77A56
:1045900037EE677AF0EE006AC7EE267AFDEEE77A2C
:1045A00017EE903A1AB2274BDA85234B1B88143B3F
:1045B00098B2214B5B88143B9BB24FF6FF721946B1
:1045C000FFF760FB00230293102301934FF6FF7364
:1045D00000934FF478431C4A28210520FDF7D8FEAC
:1045E00000230293102301934FF6FF7300934FF4BF
:1045F0007843164A3C210520FDF7CAFE4FF47A7035
:1046000000F0FEFA00230293102301934FF6FF738C
:1046100000934FF478430E4A28210520FDF7B8FE99
:10462000FFF71EFCFFF72CFC01E000BF90E42837E9
:10463000BD4680BDAFF30080E00A00204CAF00080B
:104640006CAF0008300000208CAF0008ACAF000851
:10465000CCAF0008666666666666EE3FCDCCCCCC15
:10466000CCCCF03F80B500AF04490548FFF786FA8F
:10467000FCF724FDFFF704FC00BF80BD46000020CE
:104680003C00002080B500AF024B5B6800209847DB
:1046900000BF80BD3000002080B500AF4FF48071B6
:1046A000054801F05DFB0346002B0CBF01230023EE
:1046B000DBB2184680BD00BF0008024080B400AFE6
:1046C000034B9B891846BD465DF8047B704700BFCD
:1046D0003000002080B400AF034BDB8A1846BD4693
:1046E0005DF8047B704700BF3000002080B500AF4C
:1046F000FFF7D2FF0346002B01D1002318E0FFF79C
:10470000DDFF0346322B11D9FFF7D8FF0346BD2B3F
:104710000CD8FFF7DFFF0346C82B07D9FFF7DAFFF6
:104720000346B3F5967F01D2012300E00023DBB2FC
:10473000184680BD80B500AFFFF7AEFF0346002BE3
:1047400001D1002317E0FFF7B9FF03465A2B10D918
:10475000FFF7B4FF0346952B0BD8FFF7BBFF0346CB
:10476000D22B06D9FFF7B6FF0346F92B01D8012358
:1047700000E00023DBB2184680BD80B500AFFFF734
:104780008BFF0346002B01D1002319E0FFF796FFB2
:1047900003465A2B12D9FFF791FF0346952B0DD8EC
:1047A000FFF798FF0346B3F5827F07D9FFF792FF23
:1047B0000346B3F5967F01D2012300E00023DBB26C
:1047C000184680BD80B500AFFFF766FF0346002B9B
:1047D00001D1002319E0FFF771FF0346142B12D912
:1047E000FFF76CFF03464F2B0DD8FFF773FF03460F
:1047F000B3F5827F07D9FFF76DFF0346B3F5967FC8
:1048000001D2012300E00023DBB2184680BD80B551
:1048100000AFFFF741FF0346002B01D1002319E051
:10482000FFF74CFF0346A02B12D9FFF747FF0346C3
:10483000DB2B0DD8FFF74EFF0346B3F5827F07D978
:10484000FFF748FF0346B3F5967F01D2012300E04E
:104850000023DBB2184680BD80B500AFFFF71CFF18
:104860000346002B01D1002318E0FFF727FF034682
:10487000322B11D9FFF722FF0346BD2B0CD8FFF7CF
:1048800029FF0346FA2B07D9FFF724FF0346B3F5A8
:10489000AF7F01D2012300E00023DBB2184680BDC8
:1048A00080B582B000AF78607B681B68114A934284
:1048B0001CD10A2301221049104804F08EF9104B34
:1048C0001B781A460C4B19780E4B99540C4B1B78DD
:1048D00001335A42DBB2D2B258BF5342DAB2084B6C
:1048E0001A7001220449054804F009FA00BF08378C
:1048F000BD4680BD0010014088090020B00D002099
:1049000089090020B00C002080B500AF114B124A7D
:104910001A60104B4FF4E1325A600E4B00229A603D
:104920000C4B0022DA600B4B00221A61094B0C225F
:104930005A61084B00229A61064B0022DA61054851
:1049400004F0FEF80346002B01D0FDF7DDFE00BFAA
:1049500080BD00BFB00D00200010014080B500AF49
:10496000114B124A1A60104B4FF4E1325A600E4B51
:1049700000229A600C4B0022DA600B4B00221A6175
:10498000094B0C225A61084B00229A61064B002207
:10499000DA61054804F0D4F80346002B01D0FDF796
:1049A000B3FE00BF80BD00BFF40D002000440040F6
:1049B00080B58CB000AF786007F11C0300221A604C
:1049C0005A609A60DA601A617B681B683A4A9342BF
:1049D00035D10023BB61394B5B6C384A43F010037F
:1049E0005364364B5B6C03F01003BB61BB6900235F
:1049F0007B61324B1B6B314A43F0010313632F4B36
:104A00001B6B03F001037B617B694FF4C063FB61A7
:104A100002233B6200237B620323BB620723FB620A
:104A200007F11C031946264800F0FEFF0022002172
:104A3000252000F046FC252000F05FFC38E07B6874
:104A40001B68204A934233D100233B611B4B1B6CF4
:104A50001A4A43F400331364184B1B6C03F40033FD
:104A60003B613B690023FB60144B1B6B134A43F013
:104A700001031363114B1B6B03F00103FB60FB6825
:104A80000C23FB6102233B6200237B620323BB6296
:104A90000723FB6207F11C031946094800F0C4FF15
:104AA00000220021262000F00CFC262000F025FC2E
:104AB00000BF3037BD4680BD0010014000380240C5
:104AC0000000024000440040DFF834D00D480E4999
:104AD0000E4A002302E0D458C4500433C4188C4258
:104AE000F9D30B4A0B4C002301E013600432A242BD
:104AF000FBD3FEF78DFD05F0C1F8FDF739FD7047DA
:104B00000000022000000020D8000020E0E00008A3
:104B1000D80000204C0E0020FEE7000080B500AF5A
:104B20000E4B1B680D4A43F4007313600B4B1B685C
:104B30000A4A43F480631360084B1B68074A43F436
:104B400080731360032000F0B1FB0F2000F008F821
:104B5000FEF71EFC0023184680BD00BF003C02404B
:104B600080B582B000AF7860124B1A68124B1B7888
:104B700019464FF47A73B3FBF1F3B2FBF3F3184623
:104B800000F0C9FB0346002B01D001230EE07B6837
:104B90000F2B0AD8002279684FF0FF3000F091FB0C
:104BA000064A7B681360002300E00123184608379B
:104BB000BD4680BD2C0000206C0000206800002055
:104BC00080B400AF064B1B781A46064B1B68134493
:104BD000044A136000BFBD465DF8047B704700BF08
:104BE0006C000020380E002080B400AF034B1B681F
:104BF0001846BD465DF8047B704700BF380E0020A4
:104C000080B584B000AF7860FFF7EEFFB8607B68D6
:104C1000FB60FB68B3F1FF3F05D00A4B1B781A46D7
:104C2000FB681344FB6000BFFFF7DEFF0246BB6872
:104C3000D31AFA689A42F7D800BF00BF1037BD46B2
:104C400080BD00BF6C00002080B584B000AF7860EC
:104C50000023FB737B68002B01D1012333E07B68C9
:104C60001B6C002B09D17868FCF794F97B68002253
:104C70005A647B68002283F83C207B681B6C03F03D
:104C80001003002B18D17B681B6C23F4885323F08E
:104C9000020343F002027B681A64786800F03AF974
:104CA0007B6800225A647B681B6C23F0030343F08B
:104CB00001027B681A6401E00123FB737B68002218
:104CC00083F83C20FB7B18461037BD4680BD0000B2
:104CD00080B485B000AF786039600023BB607B682A
:104CE00093F83C30012B01D1022305E17B680122BE
:104CF00083F83C203B681B68092B25D97B681B681F
:104D0000D9683B681B689BB21A4613465B00134484
:104D10001E3B072202FA03F3DA437B681B680A4052
:104D2000DA607B681B68D9683B689A683B681B68D7
:104D30009BB2184603465B0003441E3B9A407B68C7
:104D40001B680A43DA6022E07B681B6819693B68CC
:104D50001B689BB21A4613465B001344072202FAF3
:104D600003F3DA437B681B680A401A617B681B689F
:104D700019693B689A683B681B689BB218460346F2
:104D80005B0003449A407B681B680A431A613B68D6
:104D90005B68062B24D87B681B68596B3B685A6894
:104DA00013469B001344053B1F2202FA03F3DA4328
:104DB0007B681B680A405A637B681B68596B3B68B9
:104DC0001B689BB218463B685A6813469B00134405
:104DD000053B00FA03F27B681B680A435A634CE008
:104DE0003B685B680C2B24D87B681B68196B3B689D
:104DF0005A6813469B001344233B1F2202FA03F315
:104E0000DA437B681B680A401A637B681B68196B6E
:104E10003B681B689BB218463B685A6813469B0068
:104E20001344233B00FA03F27B681B680A431A63AE
:104E300023E07B681B68D96A3B685A6813469B006D
:104E40001344413B1F2202FA03F3DA437B681B68D9
:104E50000A40DA627B681B68D96A3B681B689BB2B0
:104E600018463B685A6813469B001344413B00FABE
:104E700003F27B681B680A43DA62224BFB607B68A3
:104E80001B68214A934209D13B681B68122B05D14C
:104E9000FB685B6843F48002FB685A607B681B68B0
:104EA000194A934223D13B681B68102B03D03B68FF
:104EB0001B68112B1BD1FB685B6843F40002FB6885
:104EC0005A603B681B68102B11D1104B1B68104AAD
:104ED000A2FB03239A0C13469B0013445B00BB60A8
:104EE00002E0BB68013BBB60BB68002BF9D17B686B
:104EF000002283F83C20002318461437BD465DF895
:104F0000047B704700230140002001402C0000205A
:104F100083DE1B4380B485B000AF7860794BFB60C3
:104F2000FB685B6823F44032FB685A60FB685A6890
:104F30007B685B681A43FB685A607B681B685A6829
:104F40007B681B6822F480725A607B681B68596812
:104F50007B681B691A027B681B680A435A607B687E
:104F60001B685A687B681B6822F040725A607B6835
:104F70001B6859687B689A687B681B680A435A609B
:104F80007B681B689A687B681B6822F400629A60E1
:104F90007B681B6899687B68DA687B681B680A43D2
:104FA0009A607B689B6A584A934222D07B681B6850
:104FB0009A687B681B6822F070629A607B681B6845
:104FC00099687B689A6A7B681B680A439A607B6869
:104FD0001B689A687B681B6822F040529A607B6865
:104FE0001B6899687B68DA6A7B681B680A439A6069
:104FF0000FE07B681B689A687B681B6822F0706210
:105000009A607B681B689A687B681B6822F0405234
:105010009A607B681B689A687B681B6822F00202B2
:105020009A607B681B6899687B681B7E5A007B6866
:105030001B680A439A607B6893F82030002B1BD0D2
:105040007B681B685A687B681B6842F400625A6080
:105050007B681B685A687B681B6822F460425A6050
:105060007B681B6859687B685B6A013B5A037B68F5
:105070001B680A435A6007E07B681B685A687B68B4
:105080001B6822F400625A607B681B68DA6A7B68DE
:105090001B6822F47002DA627B681B68D96A7B683D
:1050A000DB69013B1A057B681B680A43DA627B688F
:1050B0001B689A687B681B6822F400729A607B68A0
:1050C0001B6899687B6893F830305A027B681B68CC
:1050D0000A439A607B681B689A687B681B6822F4A5
:1050E00080629A607B681B6899687B685B699A023A
:1050F0007B681B680A439A6000BF1437BD465DF8A1
:10510000047B7047002301400100000F80B485B08C
:1051100000AF78607B6803F00703FB600C4BDB6833
:10512000BB60BA684FF6FF031340BB60FB681A020E
:10513000BB68134343F0BF6343F40033BB60044ACE
:10514000BB68D36000BF1437BD465DF8047B704771
:1051500000ED00E080B400AF044BDB681B0A03F0F5
:1051600007031846BD465DF8047B704700ED00E07C
:1051700080B483B000AF0346FB7197F90730002B72
:105180000BDBFB7903F01F02074997F907305B0936
:10519000012000FA02F241F8232000BF0C37BD467F
:1051A0005DF8047B704700BF00E100E080B483B08D
:1051B00000AF03463960FB7197F90730002B0ADB1B
:1051C0003B68DAB20C4997F907301201D2B20B44AE
:1051D00083F800230AE03B68DAB20849FB7903F060
:1051E0000F03043B1201D2B20B441A7600BF0C37F6
:1051F000BD465DF8047B704700E100E000ED00E093
:1052000080B489B000AFF860B9607A60FB6803F0E1
:105210000703FB61FB69C3F10703042B28BF0423C9
:10522000BB61FB690433062B02D9FB69033B00E039
:1052300000237B614FF0FF32BB6902FA03F3DA43CC
:10524000BB681A407B699A404FF0FF317B6901FAD5
:1052500003F3D9437B680B40134318462437BD46FC
:105260005DF8047B7047000080B582B000AF7860C5
:105270007B68013BB3F1807F01D301230FE00A4A31
:105280007B68013B53600F214FF0FF30FFF78EFF2B
:10529000054B00229A60044B07221A60002318462F
:1052A0000837BD4680BD00BF10E000E080B582B089
:1052B00000AF78607868FFF729FF00BF0837BD4668
:1052C00080BD80B586B000AF0346B9607A60FB73DD
:1052D00000237B61FFF73EFF78617A68B9687869DF
:1052E000FFF78EFF024697F90F3011461846FFF779
:1052F0005DFF00BF1837BD4680BD80B582B000AFEE
:105300000346FB7197F907301846FFF731FF00BFDE
:105310000837BD4680BD80B582B000AF7860786840
:10532000FFF7A2FF034618460837BD4680BD0000C0
:1053300080B586B000AF786000237B61FFF754FC36
:1053400038617B68002B01D1012399E07B68022240
:1053500083F835207B68002283F834207B681B6843
:105360001A687B681B6822F001021A600FE0FFF7E1
:105370003BFC02463B69D31A052B08D97B682022E7
:105380005A657B68032283F83520032378E07B6825
:105390001B681B6803F00103002BE8D17B681B68C6
:1053A0001B687B617A69384B13407B617B685A6864
:1053B0007B689B681A437B68DB681A437B681B69C0
:1053C0001A437B685B691A437B689B691A437B6855
:1053D000DB691A437B681B6A13437A6913437B6159
:1053E0007B685B6A042B07D17B68DA6A7B681B6B7E
:1053F00013437A6913437B617B681B687A691A607F
:105400007B681B685B697B617B6923F007037B61B9
:105410007B685B6A7A6913437B617B685B6A042BF8
:1054200017D17B689B6A7A6913437B617B68DB6A6F
:10543000002B0ED0786800F07BFA0346002B08D0D2
:105440007B6840225A657B68012283F8352001235E
:1054500016E07B681B687A695A61786800F032FA56
:105460000346FB607B68DB6D3F229A40FB689A60D5
:105470007B6800225A657B68012283F8352000236F
:1054800018461837BD4680BD3F8010F080B584B007
:1054900000AF78607B689B6DFB60FFF7A5FBB86091
:1054A0007B6893F83530DBB2022B08D07B68802212
:1054B0005A657B68002283F83420012352E07B6820
:1054C0001B681A687B681B6822F016021A607B68EA
:1054D0001B685A697B681B6822F080025A617B68EE
:1054E0001B6C002B03D17B689B6C002B07D07B6867
:1054F0001B681A687B681B6822F008021A607B68C8
:105500001B681A687B681B6822F001021A6013E0AE
:10551000FFF76AFB0246BB68D31A052B0CD97B68E0
:1055200020225A657B68032283F835207B6800229D
:1055300083F83420032315E07B681B681B6803F0A5
:105540000103002BE4D17B68DB6D3F229A40FB68AE
:105550009A607B68012283F835207B68002283F8FB
:105560003420002318461037BD4680BD80B483B078
:1055700000AF78607B6893F83530DBB2022B04D043
:105580007B6880225A6501230CE07B68052283F842
:1055900035207B681B681A687B681B6822F0010253
:1055A0001A60002318460C37BD465DF8047B70472F
:1055B00080B586B000AF78600023BB60924B1B685B
:1055C000924AA2FB03239B0A7B617B689B6D3B6134
:1055D0003B691B68FB607B68DB6D08229A40FB68B7
:1055E0001340002B1AD07B681B681B6803F0040370
:1055F000002B13D07B681B681A687B681B6822F03D
:1056000004021A607B68DB6D08229A403B699A604D
:105610007B685B6D43F001027B685A657B68DB6DDC
:1056200001229A40FB681340002B12D07B681B6854
:105630005B6903F08003002B0BD07B68DB6D0122DC
:105640009A403B699A607B685B6D43F002027B681D
:105650005A657B68DB6D04229A40FB681340002B7F
:1056600012D07B681B681B6803F00203002B0BD071
:105670007B68DB6D04229A403B699A607B685B6DB6
:1056800043F004027B685A657B68DB6D10229A4008
:10569000FB681340002B43D07B681B681B6803F03A
:1056A0000803002B3CD07B68DB6D10229A403B69DD
:1056B0009A607B681B681B6803F48023002B18D05A
:1056C0007B681B681B6803F40023002B08D17B68F0
:1056D0001B6C002B24D07B681B6C786898471FE0FC
:1056E0007B689B6C002B1BD07B689B6C7868984711
:1056F00016E07B681B681B6803F48073002B07D1DE
:105700007B681B681A687B681B6822F008021A60B5
:105710007B681B6C002B03D07B681B6C78689847F8
:105720007B68DB6D20229A40FB681340002B00F061
:105730008E807B681B681B6803F01003002B00F051
:1057400086807B68DB6D20229A403B699A607B688B
:1057500093F83530DBB2052B36D17B681B681A68AD
:105760007B681B6822F016021A607B681B685A6906
:105770007B681B6822F080025A617B681B6C002BDF
:1057800003D17B689B6C002B07D07B681B681A6871
:105790007B681B6822F008021A607B68DB6D3F2281
:1057A0009A403B699A607B68012283F835207B68C8
:1057B000002283F834207B681B6D002B7DD07B6832
:1057C0001B6D7868984778E07B681B681B6803F45A
:1057D0008023002B1CD07B681B681B6803F400230C
:1057E000002B08D17B685B6C002B30D07B685B6C36
:1057F000786898472BE07B68DB6B002B27D07B68B1
:10580000DB6B7868984722E02C000020B5814E1BA6
:105810007B681B681B6803F48073002B0FD17B68C7
:105820001B681A687B681B6822F010021A607B688C
:10583000012283F835207B68002283F834207B68BE
:10584000DB6B002B03D07B68DB6B786898477B6849
:105850005B6D002B32D07B685B6D03F00103002B86
:1058600022D07B68052283F835207B681B681A6884
:105870007B681B6822F001021A60BB680133BB60C1
:105880007A699A4207D37B681B681B6803F001039F
:10589000002BF2D100E000BF7B68012283F83520A5
:1058A0007B68002283F834207B68DB6C002B05D0FA
:1058B0007B68DB6C7868984700E000BF1837BD460E
:1058C00080BD00BF80B485B000AF78607B681B6886
:1058D000DBB2103B144AA2FB03231B09FB60134AF3
:1058E000FB6813441B781A467B68DA65FB68032B58
:1058F00009D97B681B6823F47F7323F003031A1D07
:105900007B689A6507E07B681B6823F47F7323F04C
:1059100003037A6893657B689B6D18461437BD4610
:105920005DF8047B704700BFABAAAAAA7CDF000821
:1059300080B485B000AF78600023FB737B689B6AFE
:10594000BB607B689B69002B1FD1BB68032B56D8BB
:1059500001A252F823F000BF695900087B590008E2
:1059600069590008FF5900087B68DB6A03F08073FF
:10597000002B46D00123FB7343E07B68DB6AB3F165
:10598000C07F40D10123FB733DE07B689B69B3F589
:10599000005F21D1BB68032B37D801A252F823F056
:1059A000B1590008B7590008B1590008C959000891
:1059B0000123FB7330E07B68DB6A03F08073002B0C
:1059C00025D00123FB7322E07B68DB6AB3F1C07F43
:1059D0001FD10123FB731CE0BB68022B03D9BB68FA
:1059E000032B03D018E00123FB7315E07B68DB6A0F
:1059F00003F08073002B0ED00123FB730BE000BF7C
:105A00000AE000BF08E000BF06E000BF04E000BFFE
:105A100002E000BF00E000BFFB7B18461437BD4624
:105A20005DF8047B704700BF80B489B000AF786038
:105A3000396000237B6100233B610023BB610023AD
:105A4000FB616BE10122FB6902FA03F37B613B68B6
:105A50001B687A6913403B613A697B699A4240F05E
:105A60005A813B685B6803F00303012B05D03B6858
:105A70005B6803F00303022B30D17B689B68BB613A
:105A8000FB695B00032202FA03F3DB43BA691340AC
:105A9000BB613B68DA68FB695B0002FA03F3BA6931
:105AA0001343BB617B68BA699A607B685B68BB61C2
:105AB0000122FB6902FA03F3DB43BA691340BB61BD
:105AC0003B685B681B0903F00102FB6902FA03F300
:105AD000BA691343BB617B68BA695A603B685B680B
